{
  "_format": "hh-sol-artifact-1",
  "contractName": "V3Fund",
  "sourceName": "contracts/V3Fund.sol",
  "abi": [
    {
      "inputs": [],
      "stateMutability": "nonpayable",
      "type": "constructor"
    },
    {
      "anonymous": false,
      "inputs": [
        {
          "indexed": true,
          "internalType": "address",
          "name": "owner",
          "type": "address"
        },
        {
          "indexed": true,
          "internalType": "address",
          "name": "approved",
          "type": "address"
        },
        {
          "indexed": true,
          "internalType": "uint256",
          "name": "tokenId",
          "type": "uint256"
        }
      ],
      "name": "Approval",
      "type": "event"
    },
    {
      "anonymous": false,
      "inputs": [
        {
          "indexed": true,
          "internalType": "address",
          "name": "owner",
          "type": "address"
        },
        {
          "indexed": true,
          "internalType": "address",
          "name": "operator",
          "type": "address"
        },
        {
          "indexed": false,
          "internalType": "bool",
          "name": "approved",
          "type": "bool"
        }
      ],
      "name": "ApprovalForAll",
      "type": "event"
    },
    {
      "anonymous": false,
      "inputs": [
        {
          "indexed": true,
          "internalType": "address",
          "name": "previousOwner",
          "type": "address"
        },
        {
          "indexed": true,
          "internalType": "address",
          "name": "newOwner",
          "type": "address"
        }
      ],
      "name": "OwnershipTransferred",
      "type": "event"
    },
    {
      "anonymous": false,
      "inputs": [
        {
          "indexed": true,
          "internalType": "address",
          "name": "from",
          "type": "address"
        },
        {
          "indexed": true,
          "internalType": "address",
          "name": "to",
          "type": "address"
        },
        {
          "indexed": true,
          "internalType": "uint256",
          "name": "tokenId",
          "type": "uint256"
        }
      ],
      "name": "Transfer",
      "type": "event"
    },
    {
      "inputs": [
        {
          "internalType": "uint256",
          "name": "",
          "type": "uint256"
        }
      ],
      "name": "Transactions",
      "outputs": [
        {
          "internalType": "address",
          "name": "sender",
          "type": "address"
        },
        {
          "internalType": "string",
          "name": "txHash",
          "type": "string"
        },
        {
          "internalType": "string",
          "name": "amount",
          "type": "string"
        }
      ],
      "stateMutability": "view",
      "type": "function"
    },
    {
      "inputs": [
        {
          "internalType": "string",
          "name": "_txHash",
          "type": "string"
        },
        {
          "internalType": "string",
          "name": "_amount",
          "type": "string"
        }
      ],
      "name": "addTransaction",
      "outputs": [],
      "stateMutability": "nonpayable",
      "type": "function"
    },
    {
      "inputs": [
        {
          "internalType": "address",
          "name": "to",
          "type": "address"
        },
        {
          "internalType": "uint256",
          "name": "tokenId",
          "type": "uint256"
        }
      ],
      "name": "approve",
      "outputs": [],
      "stateMutability": "nonpayable",
      "type": "function"
    },
    {
      "inputs": [
        {
          "internalType": "address",
          "name": "owner",
          "type": "address"
        }
      ],
      "name": "balanceOf",
      "outputs": [
        {
          "internalType": "uint256",
          "name": "",
          "type": "uint256"
        }
      ],
      "stateMutability": "view",
      "type": "function"
    },
    {
      "inputs": [],
      "name": "contribute",
      "outputs": [],
      "stateMutability": "payable",
      "type": "function"
    },
    {
      "inputs": [],
      "name": "contribution",
      "outputs": [
        {
          "internalType": "uint256",
          "name": "",
          "type": "uint256"
        }
      ],
      "stateMutability": "view",
      "type": "function"
    },
    {
      "inputs": [
        {
          "internalType": "uint256",
          "name": "tokenId",
          "type": "uint256"
        }
      ],
      "name": "getApproved",
      "outputs": [
        {
          "internalType": "address",
          "name": "",
          "type": "address"
        }
      ],
      "stateMutability": "view",
      "type": "function"
    },
    {
      "inputs": [
        {
          "internalType": "address",
          "name": "owner",
          "type": "address"
        },
        {
          "internalType": "address",
          "name": "operator",
          "type": "address"
        }
      ],
      "name": "isApprovedForAll",
      "outputs": [
        {
          "internalType": "bool",
          "name": "",
          "type": "bool"
        }
      ],
      "stateMutability": "view",
      "type": "function"
    },
    {
      "inputs": [],
      "name": "maxSupply",
      "outputs": [
        {
          "internalType": "uint256",
          "name": "",
          "type": "uint256"
        }
      ],
      "stateMutability": "view",
      "type": "function"
    },
    {
      "inputs": [],
      "name": "name",
      "outputs": [
        {
          "internalType": "string",
          "name": "",
          "type": "string"
        }
      ],
      "stateMutability": "view",
      "type": "function"
    },
    {
      "inputs": [],
      "name": "owner",
      "outputs": [
        {
          "internalType": "address",
          "name": "",
          "type": "address"
        }
      ],
      "stateMutability": "view",
      "type": "function"
    },
    {
      "inputs": [
        {
          "internalType": "uint256",
          "name": "tokenId",
          "type": "uint256"
        }
      ],
      "name": "ownerOf",
      "outputs": [
        {
          "internalType": "address",
          "name": "",
          "type": "address"
        }
      ],
      "stateMutability": "view",
      "type": "function"
    },
    {
      "inputs": [],
      "name": "renounceOwnership",
      "outputs": [],
      "stateMutability": "nonpayable",
      "type": "function"
    },
    {
      "inputs": [
        {
          "internalType": "address",
          "name": "from",
          "type": "address"
        },
        {
          "internalType": "address",
          "name": "to",
          "type": "address"
        },
        {
          "internalType": "uint256",
          "name": "tokenId",
          "type": "uint256"
        }
      ],
      "name": "safeTransferFrom",
      "outputs": [],
      "stateMutability": "nonpayable",
      "type": "function"
    },
    {
      "inputs": [
        {
          "internalType": "address",
          "name": "from",
          "type": "address"
        },
        {
          "internalType": "address",
          "name": "to",
          "type": "address"
        },
        {
          "internalType": "uint256",
          "name": "tokenId",
          "type": "uint256"
        },
        {
          "internalType": "bytes",
          "name": "data",
          "type": "bytes"
        }
      ],
      "name": "safeTransferFrom",
      "outputs": [],
      "stateMutability": "nonpayable",
      "type": "function"
    },
    {
      "inputs": [
        {
          "internalType": "address",
          "name": "operator",
          "type": "address"
        },
        {
          "internalType": "bool",
          "name": "approved",
          "type": "bool"
        }
      ],
      "name": "setApprovalForAll",
      "outputs": [],
      "stateMutability": "nonpayable",
      "type": "function"
    },
    {
      "inputs": [],
      "name": "showTransactions",
      "outputs": [
        {
          "components": [
            {
              "internalType": "address",
              "name": "sender",
              "type": "address"
            },
            {
              "internalType": "string",
              "name": "txHash",
              "type": "string"
            },
            {
              "internalType": "string",
              "name": "amount",
              "type": "string"
            }
          ],
          "internalType": "struct V3Fund.Transaction[]",
          "name": "",
          "type": "tuple[]"
        }
      ],
      "stateMutability": "view",
      "type": "function"
    },
    {
      "inputs": [
        {
          "internalType": "bytes4",
          "name": "interfaceId",
          "type": "bytes4"
        }
      ],
      "name": "supportsInterface",
      "outputs": [
        {
          "internalType": "bool",
          "name": "",
          "type": "bool"
        }
      ],
      "stateMutability": "view",
      "type": "function"
    },
    {
      "inputs": [],
      "name": "symbol",
      "outputs": [
        {
          "internalType": "string",
          "name": "",
          "type": "string"
        }
      ],
      "stateMutability": "view",
      "type": "function"
    },
    {
      "inputs": [
        {
          "internalType": "uint256",
          "name": "tokenId",
          "type": "uint256"
        }
      ],
      "name": "tokenURI",
      "outputs": [
        {
          "internalType": "string",
          "name": "",
          "type": "string"
        }
      ],
      "stateMutability": "view",
      "type": "function"
    },
    {
      "inputs": [
        {
          "internalType": "address",
          "name": "from",
          "type": "address"
        },
        {
          "internalType": "address",
          "name": "to",
          "type": "address"
        },
        {
          "internalType": "uint256",
          "name": "tokenId",
          "type": "uint256"
        }
      ],
      "name": "transferFrom",
      "outputs": [],
      "stateMutability": "nonpayable",
      "type": "function"
    },
    {
      "inputs": [
        {
          "internalType": "address",
          "name": "newOwner",
          "type": "address"
        }
      ],
      "name": "transferOwnership",
      "outputs": [],
      "stateMutability": "nonpayable",
      "type": "function"
    },
    {
      "inputs": [],
      "name": "withdraw",
      "outputs": [],
      "stateMutability": "nonpayable",
      "type": "function"
    }
  ],
  "bytecode": "0x608060405260405180610a600160405280610a40815260200162004371610a409139600b908162000031919062000487565b506040518060400160405280601981526020017f3c2f747370616e3e3c2f746578743e3c2f673e3c2f7376673e00000000000000815250600c908162000078919062000487565b503480156200008657600080fd5b506040518060400160405280600981526020017f43726f776446756e6400000000000000000000000000000000000000000000008152506040518060400160405280600481526020017f454e494300000000000000000000000000000000000000000000000000000000815250816000908162000104919062000487565b50806001908162000116919062000487565b505050620001396200012d6200013f60201b60201c565b6200014760201b60201c565b6200056e565b600033905090565b6000600760009054906101000a900473ffffffffffffffffffffffffffffffffffffffff16905081600760006101000a81548173ffffffffffffffffffffffffffffffffffffffff021916908373ffffffffffffffffffffffffffffffffffffffff1602179055508173ffffffffffffffffffffffffffffffffffffffff168173ffffffffffffffffffffffffffffffffffffffff167f8be0079c531659141344cd1fd0a4f28419497f9722a3daafe3b4186f6b6457e060405160405180910390a35050565b600081519050919050565b7f4e487b7100000000000000000000000000000000000000000000000000000000600052604160045260246000fd5b7f4e487b7100000000000000000000000000000000000000000000000000000000600052602260045260246000fd5b600060028204905060018216806200028f57607f821691505b602082108103620002a557620002a462000247565b5b50919050565b60008190508160005260206000209050919050565b60006020601f8301049050919050565b600082821b905092915050565b6000600883026200030f7fffffffffffffffffffffffffffffffffffffffffffffffffffffffffffffffff82620002d0565b6200031b8683620002d0565b95508019841693508086168417925050509392505050565b6000819050919050565b6000819050919050565b600062000368620003626200035c8462000333565b6200033d565b62000333565b9050919050565b6000819050919050565b620003848362000347565b6200039c62000393826200036f565b848454620002dd565b825550505050565b600090565b620003b3620003a4565b620003c081848462000379565b505050565b5b81811015620003e857620003dc600082620003a9565b600181019050620003c6565b5050565b601f82111562000437576200040181620002ab565b6200040c84620002c0565b810160208510156200041c578190505b620004346200042b85620002c0565b830182620003c5565b50505b505050565b600082821c905092915050565b60006200045c600019846008026200043c565b1980831691505092915050565b600062000477838362000449565b9150826002028217905092915050565b62000492826200020d565b67ffffffffffffffff811115620004ae57620004ad62000218565b5b620004ba825462000276565b620004c7828285620003ec565b600060209050601f831160018114620004ff5760008415620004ea578287015190505b620004f6858262000469565b86555062000566565b601f1984166200050f86620002ab565b60005b82811015620005395784890151825560018201915060208501945060208101905062000512565b8683101562000559578489015162000555601f89168262000449565b8355505b6001600288020188555050505b505050505050565b613df3806200057e6000396000f3fe6080604052600436106101405760003560e01c806370a08231116100b6578063c87b56dd1161006f578063c87b56dd14610448578063ccd00b1414610485578063d5abeb01146104b0578063d7bb99ba146104db578063e985e9c5146104e5578063f2fde38b1461052257610140565b806370a082311461034c578063715018a6146103895780638da5cb5b146103a057806395d89b41146103cb578063a22cb465146103f6578063b88d4fde1461041f57610140565b806323b872dd1161010857806323b872dd1461023c57806334008b16146102655780633ccfd60b146102a457806342842e0e146102bb57806350520b1f146102e45780636352211e1461030f57610140565b806301ffc9a71461014557806306fdde0314610182578063081812fc146101ad578063095ea7b3146101ea5780631083fa2314610213575b600080fd5b34801561015157600080fd5b5061016c60048036038101906101679190612532565b61054b565b604051610179919061257a565b60405180910390f35b34801561018e57600080fd5b5061019761062d565b6040516101a49190612625565b60405180910390f35b3480156101b957600080fd5b506101d460048036038101906101cf919061267d565b6106bf565b6040516101e191906126eb565b60405180910390f35b3480156101f657600080fd5b50610211600480360381019061020c9190612732565b610705565b005b34801561021f57600080fd5b5061023a600480360381019061023591906128a7565b61081c565b005b34801561024857600080fd5b50610263600480360381019061025e919061291f565b6108f1565b005b34801561027157600080fd5b5061028c6004803603810190610287919061267d565b610951565b60405161029b93929190612972565b60405180910390f35b3480156102b057600080fd5b506102b9610abb565b005b3480156102c757600080fd5b506102e260048036038101906102dd919061291f565b610b0c565b005b3480156102f057600080fd5b506102f9610b2c565b60405161030691906129c6565b60405180910390f35b34801561031b57600080fd5b506103366004803603810190610331919061267d565b610b32565b60405161034391906126eb565b60405180910390f35b34801561035857600080fd5b50610373600480360381019061036e91906129e1565b610bb8565b60405161038091906129c6565b60405180910390f35b34801561039557600080fd5b5061039e610c6f565b005b3480156103ac57600080fd5b506103b5610c83565b6040516103c291906126eb565b60405180910390f35b3480156103d757600080fd5b506103e0610cad565b6040516103ed9190612625565b60405180910390f35b34801561040257600080fd5b5061041d60048036038101906104189190612a3a565b610d3f565b005b34801561042b57600080fd5b5061044660048036038101906104419190612b1b565b610d55565b005b34801561045457600080fd5b5061046f600480360381019061046a919061267d565b610db7565b60405161047c9190612625565b60405180910390f35b34801561049157600080fd5b5061049a610ec9565b6040516104a79190612d10565b60405180910390f35b3480156104bc57600080fd5b506104c56110a2565b6040516104d291906129c6565b60405180910390f35b6104e36110a8565b005b3480156104f157600080fd5b5061050c60048036038101906105079190612d32565b6111be565b604051610519919061257a565b60405180910390f35b34801561052e57600080fd5b50610549600480360381019061054491906129e1565b611252565b005b60007f80ac58cd000000000000000000000000000000000000000000000000000000007bffffffffffffffffffffffffffffffffffffffffffffffffffffffff1916827bffffffffffffffffffffffffffffffffffffffffffffffffffffffff1916148061061657507f5b5e139f000000000000000000000000000000000000000000000000000000007bffffffffffffffffffffffffffffffffffffffffffffffffffffffff1916827bffffffffffffffffffffffffffffffffffffffffffffffffffffffff1916145b806106265750610625826112d5565b5b9050919050565b60606000805461063c90612da1565b80601f016020809104026020016040519081016040528092919081815260200182805461066890612da1565b80156106b55780601f1061068a576101008083540402835291602001916106b5565b820191906000526020600020905b81548152906001019060200180831161069857829003601f168201915b5050505050905090565b60006106ca8261133f565b6004600083815260200190815260200160002060009054906101000a900473ffffffffffffffffffffffffffffffffffffffff169050919050565b600061071082610b32565b90508073ffffffffffffffffffffffffffffffffffffffff168373ffffffffffffffffffffffffffffffffffffffff1603610780576040517f08c379a000000000000000000000000000000000000000000000000000000000815260040161077790612e44565b60405180910390fd5b8073ffffffffffffffffffffffffffffffffffffffff1661079f61138a565b73ffffffffffffffffffffffffffffffffffffffff1614806107ce57506107cd816107c861138a565b6111be565b5b61080d576040517f08c379a000000000000000000000000000000000000000000000000000000000815260040161080490612ed6565b60405180910390fd5b6108178383611392565b505050565b600960405180606001604052803373ffffffffffffffffffffffffffffffffffffffff16815260200184815260200183815250908060018154018082558091505060019003906000526020600020906003020160009091909190915060008201518160000160006101000a81548173ffffffffffffffffffffffffffffffffffffffff021916908373ffffffffffffffffffffffffffffffffffffffff16021790555060208201518160010190816108d491906130a2565b5060408201518160020190816108ea91906130a2565b5050505050565b6109026108fc61138a565b8261144b565b610941576040517f08c379a0000000000000000000000000000000000000000000000000000000008152600401610938906131e6565b60405180910390fd5b61094c8383836114e0565b505050565b6009818154811061096157600080fd5b90600052602060002090600302016000915090508060000160009054906101000a900473ffffffffffffffffffffffffffffffffffffffff16908060010180546109aa90612da1565b80601f01602080910402602001604051908101604052809291908181526020018280546109d690612da1565b8015610a235780601f106109f857610100808354040283529160200191610a23565b820191906000526020600020905b815481529060010190602001808311610a0657829003601f168201915b505050505090806002018054610a3890612da1565b80601f0160208091040260200160405190810160405280929190818152602001828054610a6490612da1565b8015610ab15780601f10610a8657610100808354040283529160200191610ab1565b820191906000526020600020905b815481529060010190602001808311610a9457829003601f168201915b5050505050905083565b610ac36117d9565b3373ffffffffffffffffffffffffffffffffffffffff166108fc479081150290604051600060405180830381858888f19350505050158015610b09573d6000803e3d6000fd5b50565b610b2783838360405180602001604052806000815250610d55565b505050565b60085481565b600080610b3e83611857565b9050600073ffffffffffffffffffffffffffffffffffffffff168173ffffffffffffffffffffffffffffffffffffffff1603610baf576040517f08c379a0000000000000000000000000000000000000000000000000000000008152600401610ba690613252565b60405180910390fd5b80915050919050565b60008073ffffffffffffffffffffffffffffffffffffffff168273ffffffffffffffffffffffffffffffffffffffff1603610c28576040517f08c379a0000000000000000000000000000000000000000000000000000000008152600401610c1f906132e4565b60405180910390fd5b600360008373ffffffffffffffffffffffffffffffffffffffff1673ffffffffffffffffffffffffffffffffffffffff168152602001908152602001600020549050919050565b610c776117d9565b610c816000611894565b565b6000600760009054906101000a900473ffffffffffffffffffffffffffffffffffffffff16905090565b606060018054610cbc90612da1565b80601f0160208091040260200160405190810160405280929190818152602001828054610ce890612da1565b8015610d355780601f10610d0a57610100808354040283529160200191610d35565b820191906000526020600020905b815481529060010190602001808311610d1857829003601f168201915b5050505050905090565b610d51610d4a61138a565b838361195a565b5050565b610d66610d6061138a565b8361144b565b610da5576040517f08c379a0000000000000000000000000000000000000000000000000000000008152600401610d9c906131e6565b60405180910390fd5b610db184848484611ac6565b50505050565b6060610dc28261133f565b6000600660008481526020019081526020016000208054610de290612da1565b80601f0160208091040260200160405190810160405280929190818152602001828054610e0e90612da1565b8015610e5b5780601f10610e3057610100808354040283529160200191610e5b565b820191906000526020600020905b815481529060010190602001808311610e3e57829003601f168201915b505050505090506000610e6c611b22565b90506000815103610e81578192505050610ec4565b600082511115610eb6578082604051602001610e9e929190613340565b60405160208183030381529060405292505050610ec4565b610ebf84611b39565b925050505b919050565b60606009805480602002602001604051908101604052809291908181526020016000905b8282101561109957838290600052602060002090600302016040518060600160405290816000820160009054906101000a900473ffffffffffffffffffffffffffffffffffffffff1673ffffffffffffffffffffffffffffffffffffffff1673ffffffffffffffffffffffffffffffffffffffff168152602001600182018054610f7690612da1565b80601f0160208091040260200160405190810160405280929190818152602001828054610fa290612da1565b8015610fef5780601f10610fc457610100808354040283529160200191610fef565b820191906000526020600020905b815481529060010190602001808311610fd257829003601f168201915b5050505050815260200160028201805461100890612da1565b80601f016020809104026020016040519081016040528092919081815260200182805461103490612da1565b80156110815780601f1061105657610100808354040283529160200191611081565b820191906000526020600020905b81548152906001019060200180831161106457829003601f168201915b50505050508152505081526020019060010190610eed565b50505050905090565b600a5481565b600034116110eb576040517f08c379a00000000000000000000000000000000000000000000000000000000081526004016110e2906133b0565b60405180910390fd5b6001600a60008282546110fe91906133ff565b9250508190555067016345785d8a000034106111bc5761112033600a54611ba1565b6000600b61112f600a54611dbe565b600c604051602001611143939291906134b6565b6040516020818303038152906040529050600061118661116283611e8c565b6040516020016111729190613689565b604051602081830303815290604052611e8c565b905060008160405160200161119b9190613718565b60405160208183030381529060405290506111b8600a5482611fef565b5050505b565b6000600560008473ffffffffffffffffffffffffffffffffffffffff1673ffffffffffffffffffffffffffffffffffffffff16815260200190815260200160002060008373ffffffffffffffffffffffffffffffffffffffff1673ffffffffffffffffffffffffffffffffffffffff16815260200190815260200160002060009054906101000a900460ff16905092915050565b61125a6117d9565b600073ffffffffffffffffffffffffffffffffffffffff168173ffffffffffffffffffffffffffffffffffffffff16036112c9576040517f08c379a00000000000000000000000000000000000000000000000000000000081526004016112c0906137ac565b60405180910390fd5b6112d281611894565b50565b60007f01ffc9a7000000000000000000000000000000000000000000000000000000007bffffffffffffffffffffffffffffffffffffffffffffffffffffffff1916827bffffffffffffffffffffffffffffffffffffffffffffffffffffffff1916149050919050565b6113488161205c565b611387576040517f08c379a000000000000000000000000000000000000000000000000000000000815260040161137e90613252565b60405180910390fd5b50565b600033905090565b816004600083815260200190815260200160002060006101000a81548173ffffffffffffffffffffffffffffffffffffffff021916908373ffffffffffffffffffffffffffffffffffffffff160217905550808273ffffffffffffffffffffffffffffffffffffffff1661140583610b32565b73ffffffffffffffffffffffffffffffffffffffff167f8c5be1e5ebec7d5bd14f71427d1e84f3dd0314c0f7b2291e5b200ac8c7c3b92560405160405180910390a45050565b60008061145783610b32565b90508073ffffffffffffffffffffffffffffffffffffffff168473ffffffffffffffffffffffffffffffffffffffff161480611499575061149881856111be565b5b806114d757508373ffffffffffffffffffffffffffffffffffffffff166114bf846106bf565b73ffffffffffffffffffffffffffffffffffffffff16145b91505092915050565b8273ffffffffffffffffffffffffffffffffffffffff1661150082610b32565b73ffffffffffffffffffffffffffffffffffffffff1614611556576040517f08c379a000000000000000000000000000000000000000000000000000000000815260040161154d9061383e565b60405180910390fd5b600073ffffffffffffffffffffffffffffffffffffffff168273ffffffffffffffffffffffffffffffffffffffff16036115c5576040517f08c379a00000000000000000000000000000000000000000000000000000000081526004016115bc906138d0565b60405180910390fd5b6115d2838383600161209d565b8273ffffffffffffffffffffffffffffffffffffffff166115f282610b32565b73ffffffffffffffffffffffffffffffffffffffff1614611648576040517f08c379a000000000000000000000000000000000000000000000000000000000815260040161163f9061383e565b60405180910390fd5b6004600082815260200190815260200160002060006101000a81549073ffffffffffffffffffffffffffffffffffffffff02191690556001600360008573ffffffffffffffffffffffffffffffffffffffff1673ffffffffffffffffffffffffffffffffffffffff168152602001908152602001600020600082825403925050819055506001600360008473ffffffffffffffffffffffffffffffffffffffff1673ffffffffffffffffffffffffffffffffffffffff16815260200190815260200160002060008282540192505081905550816002600083815260200190815260200160002060006101000a81548173ffffffffffffffffffffffffffffffffffffffff021916908373ffffffffffffffffffffffffffffffffffffffff160217905550808273ffffffffffffffffffffffffffffffffffffffff168473ffffffffffffffffffffffffffffffffffffffff167fddf252ad1be2c89b69c2b068fc378daa952ba7f163c4a11628f55a4df523b3ef60405160405180910390a46117d483838360016121c3565b505050565b6117e161138a565b73ffffffffffffffffffffffffffffffffffffffff166117ff610c83565b73ffffffffffffffffffffffffffffffffffffffff1614611855576040517f08c379a000000000000000000000000000000000000000000000000000000000815260040161184c9061393c565b60405180910390fd5b565b60006002600083815260200190815260200160002060009054906101000a900473ffffffffffffffffffffffffffffffffffffffff169050919050565b6000600760009054906101000a900473ffffffffffffffffffffffffffffffffffffffff16905081600760006101000a81548173ffffffffffffffffffffffffffffffffffffffff021916908373ffffffffffffffffffffffffffffffffffffffff1602179055508173ffffffffffffffffffffffffffffffffffffffff168173ffffffffffffffffffffffffffffffffffffffff167f8be0079c531659141344cd1fd0a4f28419497f9722a3daafe3b4186f6b6457e060405160405180910390a35050565b8173ffffffffffffffffffffffffffffffffffffffff168373ffffffffffffffffffffffffffffffffffffffff16036119c8576040517f08c379a00000000000000000000000000000000000000000000000000000000081526004016119bf906139a8565b60405180910390fd5b80600560008573ffffffffffffffffffffffffffffffffffffffff1673ffffffffffffffffffffffffffffffffffffffff16815260200190815260200160002060008473ffffffffffffffffffffffffffffffffffffffff1673ffffffffffffffffffffffffffffffffffffffff16815260200190815260200160002060006101000a81548160ff0219169083151502179055508173ffffffffffffffffffffffffffffffffffffffff168373ffffffffffffffffffffffffffffffffffffffff167f17307eab39ab6107e8899845ad3d59bd9653f200f220920489ca2b5937696c3183604051611ab9919061257a565b60405180910390a3505050565b611ad18484846114e0565b611add848484846121c9565b611b1c576040517f08c379a0000000000000000000000000000000000000000000000000000000008152600401611b1390613a3a565b60405180910390fd5b50505050565b606060405180602001604052806000815250905090565b6060611b448261133f565b6000611b4e611b22565b90506000815111611b6e5760405180602001604052806000815250611b99565b80611b7884611dbe565b604051602001611b89929190613340565b6040516020818303038152906040525b915050919050565b600073ffffffffffffffffffffffffffffffffffffffff168273ffffffffffffffffffffffffffffffffffffffff1603611c10576040517f08c379a0000000000000000000000000000000000000000000000000000000008152600401611c0790613aa6565b60405180910390fd5b611c198161205c565b15611c59576040517f08c379a0000000000000000000000000000000000000000000000000000000008152600401611c5090613b12565b60405180910390fd5b611c6760008383600161209d565b611c708161205c565b15611cb0576040517f08c379a0000000000000000000000000000000000000000000000000000000008152600401611ca790613b12565b60405180910390fd5b6001600360008473ffffffffffffffffffffffffffffffffffffffff1673ffffffffffffffffffffffffffffffffffffffff16815260200190815260200160002060008282540192505081905550816002600083815260200190815260200160002060006101000a81548173ffffffffffffffffffffffffffffffffffffffff021916908373ffffffffffffffffffffffffffffffffffffffff160217905550808273ffffffffffffffffffffffffffffffffffffffff16600073ffffffffffffffffffffffffffffffffffffffff167fddf252ad1be2c89b69c2b068fc378daa952ba7f163c4a11628f55a4df523b3ef60405160405180910390a4611dba6000838360016121c3565b5050565b606060006001611dcd84612350565b01905060008167ffffffffffffffff811115611dec57611deb61277c565b5b6040519080825280601f01601f191660200182016040528015611e1e5781602001600182028036833780820191505090505b509050600082602001820190505b600115611e81578080600190039150507f3031323334353637383961626364656600000000000000000000000000000000600a86061a8153600a8581611e7557611e74613b32565b5b04945060008503611e2c575b819350505050919050565b60606000825103611eae57604051806020016040528060008152509050611fea565b6000604051806060016040528060408152602001613d7e6040913990506000600360028551611edd91906133ff565b611ee79190613b61565b6004611ef39190613b92565b67ffffffffffffffff811115611f0c57611f0b61277c565b5b6040519080825280601f01601f191660200182016040528015611f3e5781602001600182028036833780820191505090505b509050600182016020820185865187015b80821015611faa576003820191508151603f8160121c168501518453600184019350603f81600c1c168501518453600184019350603f8160061c168501518453600184019350603f8116850151845360018401935050611f4f565b5050600386510660018114611fc65760028114611fd957611fe1565b603d6001830353603d6002830353611fe1565b603d60018303535b50505080925050505b919050565b611ff88261205c565b612037576040517f08c379a000000000000000000000000000000000000000000000000000000000815260040161202e90613c46565b60405180910390fd5b8060066000848152602001908152602001600020908161205791906130a2565b505050565b60008073ffffffffffffffffffffffffffffffffffffffff1661207e83611857565b73ffffffffffffffffffffffffffffffffffffffff1614159050919050565b60018111156121bd57600073ffffffffffffffffffffffffffffffffffffffff168473ffffffffffffffffffffffffffffffffffffffff16146121315780600360008673ffffffffffffffffffffffffffffffffffffffff1673ffffffffffffffffffffffffffffffffffffffff16815260200190815260200160002060008282546121299190613c66565b925050819055505b600073ffffffffffffffffffffffffffffffffffffffff168373ffffffffffffffffffffffffffffffffffffffff16146121bc5780600360008573ffffffffffffffffffffffffffffffffffffffff1673ffffffffffffffffffffffffffffffffffffffff16815260200190815260200160002060008282546121b491906133ff565b925050819055505b5b50505050565b50505050565b60006121ea8473ffffffffffffffffffffffffffffffffffffffff166124a3565b15612343578373ffffffffffffffffffffffffffffffffffffffff1663150b7a0261221361138a565b8786866040518563ffffffff1660e01b81526004016122359493929190613cef565b6020604051808303816000875af192505050801561227157506040513d601f19601f8201168201806040525081019061226e9190613d50565b60015b6122f3573d80600081146122a1576040519150601f19603f3d011682016040523d82523d6000602084013e6122a6565b606091505b5060008151036122eb576040517f08c379a00000000000000000000000000000000000000000000000000000000081526004016122e290613a3a565b60405180910390fd5b805181602001fd5b63150b7a0260e01b7bffffffffffffffffffffffffffffffffffffffffffffffffffffffff1916817bffffffffffffffffffffffffffffffffffffffffffffffffffffffff191614915050612348565b600190505b949350505050565b600080600090507a184f03e93ff9f4daa797ed6e38ed64bf6a1f01000000000000000083106123ae577a184f03e93ff9f4daa797ed6e38ed64bf6a1f01000000000000000083816123a4576123a3613b32565b5b0492506040810190505b6d04ee2d6d415b85acef810000000083106123eb576d04ee2d6d415b85acef810000000083816123e1576123e0613b32565b5b0492506020810190505b662386f26fc10000831061241a57662386f26fc1000083816124105761240f613b32565b5b0492506010810190505b6305f5e1008310612443576305f5e100838161243957612438613b32565b5b0492506008810190505b612710831061246857612710838161245e5761245d613b32565b5b0492506004810190505b6064831061248b576064838161248157612480613b32565b5b0492506002810190505b600a831061249a576001810190505b80915050919050565b6000808273ffffffffffffffffffffffffffffffffffffffff163b119050919050565b6000604051905090565b600080fd5b600080fd5b60007fffffffff0000000000000000000000000000000000000000000000000000000082169050919050565b61250f816124da565b811461251a57600080fd5b50565b60008135905061252c81612506565b92915050565b600060208284031215612548576125476124d0565b5b60006125568482850161251d565b91505092915050565b60008115159050919050565b6125748161255f565b82525050565b600060208201905061258f600083018461256b565b92915050565b600081519050919050565b600082825260208201905092915050565b60005b838110156125cf5780820151818401526020810190506125b4565b60008484015250505050565b6000601f19601f8301169050919050565b60006125f782612595565b61260181856125a0565b93506126118185602086016125b1565b61261a816125db565b840191505092915050565b6000602082019050818103600083015261263f81846125ec565b905092915050565b6000819050919050565b61265a81612647565b811461266557600080fd5b50565b60008135905061267781612651565b92915050565b600060208284031215612693576126926124d0565b5b60006126a184828501612668565b91505092915050565b600073ffffffffffffffffffffffffffffffffffffffff82169050919050565b60006126d5826126aa565b9050919050565b6126e5816126ca565b82525050565b600060208201905061270060008301846126dc565b92915050565b61270f816126ca565b811461271a57600080fd5b50565b60008135905061272c81612706565b92915050565b60008060408385031215612749576127486124d0565b5b60006127578582860161271d565b925050602061276885828601612668565b9150509250929050565b600080fd5b600080fd5b7f4e487b7100000000000000000000000000000000000000000000000000000000600052604160045260246000fd5b6127b4826125db565b810181811067ffffffffffffffff821117156127d3576127d261277c565b5b80604052505050565b60006127e66124c6565b90506127f282826127ab565b919050565b600067ffffffffffffffff8211156128125761281161277c565b5b61281b826125db565b9050602081019050919050565b82818337600083830152505050565b600061284a612845846127f7565b6127dc565b90508281526020810184848401111561286657612865612777565b5b612871848285612828565b509392505050565b600082601f83011261288e5761288d612772565b5b813561289e848260208601612837565b91505092915050565b600080604083850312156128be576128bd6124d0565b5b600083013567ffffffffffffffff8111156128dc576128db6124d5565b5b6128e885828601612879565b925050602083013567ffffffffffffffff811115612909576129086124d5565b5b61291585828601612879565b9150509250929050565b600080600060608486031215612938576129376124d0565b5b60006129468682870161271d565b93505060206129578682870161271d565b925050604061296886828701612668565b9150509250925092565b600060608201905061298760008301866126dc565b818103602083015261299981856125ec565b905081810360408301526129ad81846125ec565b9050949350505050565b6129c081612647565b82525050565b60006020820190506129db60008301846129b7565b92915050565b6000602082840312156129f7576129f66124d0565b5b6000612a058482850161271d565b91505092915050565b612a178161255f565b8114612a2257600080fd5b50565b600081359050612a3481612a0e565b92915050565b60008060408385031215612a5157612a506124d0565b5b6000612a5f8582860161271d565b9250506020612a7085828601612a25565b9150509250929050565b600067ffffffffffffffff821115612a9557612a9461277c565b5b612a9e826125db565b9050602081019050919050565b6000612abe612ab984612a7a565b6127dc565b905082815260208101848484011115612ada57612ad9612777565b5b612ae5848285612828565b509392505050565b600082601f830112612b0257612b01612772565b5b8135612b12848260208601612aab565b91505092915050565b60008060008060808587031215612b3557612b346124d0565b5b6000612b438782880161271d565b9450506020612b548782880161271d565b9350506040612b6587828801612668565b925050606085013567ffffffffffffffff811115612b8657612b856124d5565b5b612b9287828801612aed565b91505092959194509250565b600081519050919050565b600082825260208201905092915050565b6000819050602082019050919050565b612bd3816126ca565b82525050565b600082825260208201905092915050565b6000612bf582612595565b612bff8185612bd9565b9350612c0f8185602086016125b1565b612c18816125db565b840191505092915050565b6000606083016000830151612c3b6000860182612bca565b5060208301518482036020860152612c538282612bea565b91505060408301518482036040860152612c6d8282612bea565b9150508091505092915050565b6000612c868383612c23565b905092915050565b6000602082019050919050565b6000612ca682612b9e565b612cb08185612ba9565b935083602082028501612cc285612bba565b8060005b85811015612cfe5784840389528151612cdf8582612c7a565b9450612cea83612c8e565b925060208a01995050600181019050612cc6565b50829750879550505050505092915050565b60006020820190508181036000830152612d2a8184612c9b565b905092915050565b60008060408385031215612d4957612d486124d0565b5b6000612d578582860161271d565b9250506020612d688582860161271d565b9150509250929050565b7f4e487b7100000000000000000000000000000000000000000000000000000000600052602260045260246000fd5b60006002820490506001821680612db957607f821691505b602082108103612dcc57612dcb612d72565b5b50919050565b7f4552433732313a20617070726f76616c20746f2063757272656e74206f776e6560008201527f7200000000000000000000000000000000000000000000000000000000000000602082015250565b6000612e2e6021836125a0565b9150612e3982612dd2565b604082019050919050565b60006020820190508181036000830152612e5d81612e21565b9050919050565b7f4552433732313a20617070726f76652063616c6c6572206973206e6f7420746f60008201527f6b656e206f776e6572206f7220617070726f76656420666f7220616c6c000000602082015250565b6000612ec0603d836125a0565b9150612ecb82612e64565b604082019050919050565b60006020820190508181036000830152612eef81612eb3565b9050919050565b60008190508160005260206000209050919050565b60006020601f8301049050919050565b600082821b905092915050565b600060088302612f587fffffffffffffffffffffffffffffffffffffffffffffffffffffffffffffffff82612f1b565b612f628683612f1b565b95508019841693508086168417925050509392505050565b6000819050919050565b6000612f9f612f9a612f9584612647565b612f7a565b612647565b9050919050565b6000819050919050565b612fb983612f84565b612fcd612fc582612fa6565b848454612f28565b825550505050565b600090565b612fe2612fd5565b612fed818484612fb0565b505050565b5b8181101561301157613006600082612fda565b600181019050612ff3565b5050565b601f8211156130565761302781612ef6565b61303084612f0b565b8101602085101561303f578190505b61305361304b85612f0b565b830182612ff2565b50505b505050565b600082821c905092915050565b60006130796000198460080261305b565b1980831691505092915050565b60006130928383613068565b9150826002028217905092915050565b6130ab82612595565b67ffffffffffffffff8111156130c4576130c361277c565b5b6130ce8254612da1565b6130d9828285613015565b600060209050601f83116001811461310c57600084156130fa578287015190505b6131048582613086565b86555061316c565b601f19841661311a86612ef6565b60005b828110156131425784890151825560018201915060208501945060208101905061311d565b8683101561315f578489015161315b601f891682613068565b8355505b6001600288020188555050505b505050505050565b7f4552433732313a2063616c6c6572206973206e6f7420746f6b656e206f776e6560008201527f72206f7220617070726f76656400000000000000000000000000000000000000602082015250565b60006131d0602d836125a0565b91506131db82613174565b604082019050919050565b600060208201905081810360008301526131ff816131c3565b9050919050565b7f4552433732313a20696e76616c696420746f6b656e2049440000000000000000600082015250565b600061323c6018836125a0565b915061324782613206565b602082019050919050565b6000602082019050818103600083015261326b8161322f565b9050919050565b7f4552433732313a2061646472657373207a65726f206973206e6f74206120766160008201527f6c6964206f776e65720000000000000000000000000000000000000000000000602082015250565b60006132ce6029836125a0565b91506132d982613272565b604082019050919050565b600060208201905081810360008301526132fd816132c1565b9050919050565b600081905092915050565b600061331a82612595565b6133248185613304565b93506133348185602086016125b1565b80840191505092915050565b600061334c828561330f565b9150613358828461330f565b91508190509392505050565b7f456e74657220736f6d6520616d6f756e74000000000000000000000000000000600082015250565b600061339a6011836125a0565b91506133a582613364565b602082019050919050565b600060208201905081810360008301526133c98161338d565b9050919050565b7f4e487b7100000000000000000000000000000000000000000000000000000000600052601160045260246000fd5b600061340a82612647565b915061341583612647565b925082820190508082111561342d5761342c6133d0565b5b92915050565b6000815461344081612da1565b61344a8186613304565b94506001821660008114613465576001811461347a576134ad565b60ff19831686528115158202860193506134ad565b61348385612ef6565b60005b838110156134a557815481890152600182019150602081019050613486565b838801955050505b50505092915050565b60006134c28286613433565b91506134ce828561330f565b91506134da8284613433565b9150819050949350505050565b7f20207b226e616d65223a225261696e626f7720546f6b656e2220202c00000000600082015250565b600061351d601c83613304565b9150613528826134e7565b601c82019050919050565b7f20226465736372697074696f6e223a224120756e6971756520746f6b656e206660008201527f6f722074686f73652077686f20646f6e61746564206d6f7265207468616e203060208201527f2e31204554482220202c00000000000000000000000000000000000000000000604082015250565b60006135b5604a83613304565b91506135c082613533565b604a82019050919050565b7f202022696d616765223a2022646174613a696d6167652f7376672b786d6c3b6260008201527f61736536342c2000000000000000000000000000000000000000000000000000602082015250565b6000613627602783613304565b9150613632826135cb565b602782019050919050565b7f20227d2000000000000000000000000000000000000000000000000000000000600082015250565b6000613673600483613304565b915061367e8261363d565b600482019050919050565b600061369482613510565b915061369f826135a8565b91506136aa8261361a565b91506136b6828461330f565b91506136c182613666565b915081905092915050565b7f646174613a6170706c69636174696f6e2f6a736f6e3b6261736536342c000000600082015250565b6000613702601d83613304565b915061370d826136cc565b601d82019050919050565b6000613723826136f5565b915061372f828461330f565b915081905092915050565b7f4f776e61626c653a206e6577206f776e657220697320746865207a65726f206160008201527f6464726573730000000000000000000000000000000000000000000000000000602082015250565b60006137966026836125a0565b91506137a18261373a565b604082019050919050565b600060208201905081810360008301526137c581613789565b9050919050565b7f4552433732313a207472616e736665722066726f6d20696e636f72726563742060008201527f6f776e6572000000000000000000000000000000000000000000000000000000602082015250565b60006138286025836125a0565b9150613833826137cc565b604082019050919050565b600060208201905081810360008301526138578161381b565b9050919050565b7f4552433732313a207472616e7366657220746f20746865207a65726f2061646460008201527f7265737300000000000000000000000000000000000000000000000000000000602082015250565b60006138ba6024836125a0565b91506138c58261385e565b604082019050919050565b600060208201905081810360008301526138e9816138ad565b9050919050565b7f4f776e61626c653a2063616c6c6572206973206e6f7420746865206f776e6572600082015250565b60006139266020836125a0565b9150613931826138f0565b602082019050919050565b6000602082019050818103600083015261395581613919565b9050919050565b7f4552433732313a20617070726f766520746f2063616c6c657200000000000000600082015250565b60006139926019836125a0565b915061399d8261395c565b602082019050919050565b600060208201905081810360008301526139c181613985565b9050919050565b7f4552433732313a207472616e7366657220746f206e6f6e20455243373231526560008201527f63656976657220696d706c656d656e7465720000000000000000000000000000602082015250565b6000613a246032836125a0565b9150613a2f826139c8565b604082019050919050565b60006020820190508181036000830152613a5381613a17565b9050919050565b7f4552433732313a206d696e7420746f20746865207a65726f2061646472657373600082015250565b6000613a906020836125a0565b9150613a9b82613a5a565b602082019050919050565b60006020820190508181036000830152613abf81613a83565b9050919050565b7f4552433732313a20746f6b656e20616c7265616479206d696e74656400000000600082015250565b6000613afc601c836125a0565b9150613b0782613ac6565b602082019050919050565b60006020820190508181036000830152613b2b81613aef565b9050919050565b7f4e487b7100000000000000000000000000000000000000000000000000000000600052601260045260246000fd5b6000613b6c82612647565b9150613b7783612647565b925082613b8757613b86613b32565b5b828204905092915050565b6000613b9d82612647565b9150613ba883612647565b9250828202613bb681612647565b91508282048414831517613bcd57613bcc6133d0565b5b5092915050565b7f45524337323155524953746f726167653a2055524920736574206f66206e6f6e60008201527f6578697374656e7420746f6b656e000000000000000000000000000000000000602082015250565b6000613c30602e836125a0565b9150613c3b82613bd4565b604082019050919050565b60006020820190508181036000830152613c5f81613c23565b9050919050565b6000613c7182612647565b9150613c7c83612647565b9250828203905081811115613c9457613c936133d0565b5b92915050565b600081519050919050565b600082825260208201905092915050565b6000613cc182613c9a565b613ccb8185613ca5565b9350613cdb8185602086016125b1565b613ce4816125db565b840191505092915050565b6000608082019050613d0460008301876126dc565b613d1160208301866126dc565b613d1e60408301856129b7565b8181036060830152613d308184613cb6565b905095945050505050565b600081519050613d4a81612506565b92915050565b600060208284031215613d6657613d656124d0565b5b6000613d7484828501613d3b565b9150509291505056fe4142434445464748494a4b4c4d4e4f505152535455565758595a6162636465666768696a6b6c6d6e6f707172737475767778797a303132333435363738392b2fa2646970667358221220a9d047b505664cb93f92830578d01cf45dbe6448a4393fd5a61fef515fb5233164736f6c634300081100333c73766720786d6c6e733d22687474703a2f2f7777772e77332e6f72672f323030302f7376672220786d6c6e733a786c696e6b3d22687474703a2f2f7777772e77332e6f72672f313939392f786c696e6b222076657273696f6e3d22312e31222077696474683d223130383022206865696768743d2231303830222076696577426f783d22302030203130383020313038302220786d6c3a73706163653d227072657365727665223e3c646566733e3c2f646566733e3c7265637420783d22302220793d2230222077696474683d223130302522206865696768743d2231303025222066696c6c3d227472616e73706172656e74223e3c2f726563743e3c67207472616e73666f726d3d226d61747269782831203020302031203534302035343029222069643d2230646232613164662d323866352d343230352d383638662d3965613035616161616361632220203e3c72656374207374796c653d227374726f6b653a206e6f6e653b207374726f6b652d77696474683a20313b207374726f6b652d6461736861727261793a206e6f6e653b207374726f6b652d6c696e656361703a20627574743b207374726f6b652d646173686f66667365743a20303b207374726f6b652d6c696e656a6f696e3a206d697465723b207374726f6b652d6d697465726c696d69743a20343b2066696c6c3a207267622835352c3138312c313835293b2066696c6c2d72756c653a206e6f6e7a65726f3b206f7061636974793a20313b2220766563746f722d6566666563743d226e6f6e2d7363616c696e672d7374726f6b65222020783d222d3534302220793d222d353430222072783d2230222072793d2230222077696474683d223130383022206865696768743d223130383022202f3e3c2f673e3c67207472616e73666f726d3d226d61747269782831203020302031203534302035343029222069643d2233313464373764342d663666352d343462342d383532622d6363323534303636336538372220203e3c2f673e3c67207472616e73666f726d3d226d617472697828352e35342030203020352e3534203832312e352039323229222069643d2266633833633062652d653630622d346539362d623134302d3762306130633730646663642220203e3c72656374207374796c653d227374726f6b653a2072676228302c302c30293b207374726f6b652d77696474683a20303b207374726f6b652d6461736861727261793a206e6f6e653b207374726f6b652d6c696e656361703a20627574743b207374726f6b652d646173686f66667365743a20303b207374726f6b652d6c696e656a6f696e3a206d697465723b207374726f6b652d6d697465726c696d69743a20343b2066696c6c3a20726762283230372c3139302c3133293b2066696c6c2d72756c653a206e6f6e7a65726f3b206f7061636974793a20313b2220766563746f722d6566666563743d226e6f6e2d7363616c696e672d7374726f6b65222020783d222d33372e343538352220793d222d31392e34313635222072783d2230222072793d2230222077696474683d2237342e39313722206865696768743d2233382e38333322202f3e3c2f673e3c67207472616e73666f726d3d226d617472697828302e36362030203020302e3636203832382e3936203932372e38322922207374796c653d22222069643d2230323430356532312d346363342d346533642d386263342d3462336339636432306262332220203e3c7465787420786d6c3a73706163653d2270726573657276652220666f6e742d66616d696c793d22416c6567726579612220666f6e742d73697a653d2238302220666f6e742d7374796c653d226e6f726d616c2220666f6e742d7765696768743d2237303022207374796c653d227374726f6b653a206e6f6e653b207374726f6b652d77696474683a20313b207374726f6b652d6461736861727261793a206e6f6e653b207374726f6b652d6c696e656361703a20627574743b207374726f6b652d646173686f66667365743a20303b207374726f6b652d6c696e656a6f696e3a206d697465723b207374726f6b652d6d697465726c696d69743a20343b2066696c6c3a207267622834362c35372c3534293b2066696c6c2d72756c653a206e6f6e7a65726f3b206f7061636974793a20313b2077686974652d73706163653a207072653b22203e3c747370616e20783d222d3232362e34342220793d2232352e313322203e46726f6d20563346756e643c2f747370616e3e3c2f746578743e3c2f673e3c67207472616e73666f726d3d226d617472697828302e372030203020302e37203235392e3438203130372e38322922207374796c653d22222069643d2261633634383136612d653735612d343834642d623633362d3065313035643762313763622220203e3c7465787420786d6c3a73706163653d2270726573657276652220666f6e742d66616d696c793d22416c6567726579612220666f6e742d73697a653d2238302220666f6e742d7374796c653d226e6f726d616c2220666f6e742d7765696768743d2237303022207374796c653d227374726f6b653a206e6f6e653b207374726f6b652d77696474683a20313b207374726f6b652d6461736861727261793a206e6f6e653b207374726f6b652d6c696e656361703a20627574743b207374726f6b652d646173686f66667365743a20303b207374726f6b652d6c696e656a6f696e3a206d697465723b207374726f6b652d6d697465726c696d69743a20343b2066696c6c3a2072676228302c302c30293b2066696c6c2d72756c653a206e6f6e7a65726f3b206f7061636974793a20313b2077686974652d73706163653a207072653b22203e3c747370616e20783d222d3239312e32342220793d2232352e313322207374796c653d2277686974652d73706163653a207072653b20223e537570706f727420557321213c2f747370616e3e3c2f746578743e3c2f673e3c67207472616e73666f726d3d226d6174726978283120302030203120353430203433392e35372922207374796c653d22222069643d2230306633633866362d633561302d343835362d393363632d6533653134353838323539332220203e3c7465787420786d6c3a73706163653d2270726573657276652220666f6e742d66616d696c793d2252616c657761792220666f6e742d73697a653d223130352220666f6e742d7374796c653d226e6f726d616c2220666f6e742d7765696768743d2239303022207374796c653d227374726f6b653a206e6f6e653b207374726f6b652d77696474683a20313b207374726f6b652d6461736861727261793a206e6f6e653b207374726f6b652d6c696e656361703a20627574743b207374726f6b652d646173686f66667365743a20303b207374726f6b652d6c696e656a6f696e3a206d697465723b207374726f6b652d6d697465726c696d69743a20343b2066696c6c3a20726762283235352c3233302c323330293b2066696c6c2d72756c653a206e6f6e7a65726f3b206f7061636974793a20313b2077686974652d73706163653a207072653b22203e3c747370616e20783d222d39392e35392220793d2233322e393822203e23",
  "linkReferences": {},
  "deployedLinkReferences": {}
}